:03000000020B747C
:0C0B7400787FE4F6D8FD758120020BBBF1
:100EDE006E6578742074696D650074656D706572E9
:100EEE0061747572653A00706D322E353A003F06A8
:0E0EFE005B4F666D7D077F6F777C395E797183
:100D9F00830100000083130300048F040000000090
:100DAF0000000000000000000000009E3200000064
:100DBF000000000000000000000000000000000024
:0B0DCF00000000000000000000000019
:100D6200D2AF12100C758901758CFC758A67D2A9F5
:100D7200D28CC2A07F607E09120F607BFF7A0E794F
:100D8200DE7D01E4FF120DDB12000EE4FF120F36CE
:0D0D9200120F0CEF3395E0FE12078E80EB80
:10078E00781AEEF208EFF2D3781BE2940018E264C6
:10079E00809480500302092DE2FA08E2FB7C007D72
:1007AE000AFFAE021203D374FC2DF582740E3CF5D3
:1007BE0083E4937801F27C007D0AAF03AE0212034C
:1007CE00D37C007D0A1203D374FC2DF582740E3C8B
:1007DE00F583E4937802F2781AE2FA08E2FB7C00E1
:1007EE007D64FFAE021203D37C007D0A1203D37424
:1007FE00FC2DF582740E3CF583E4937803F27C00B5
:10080E007D04AF03AE021203D3ED4C707A12108743
:10081E00E47800F2120FF77BFE7A007913785974A0
:10082E0003F27FB8120D237F027E00120FA77BFE0C
:10083E007A00790478597408F27FB8120C74D2B524
:10084E00D2B67BFE7A00791F7808E2FE08E27C00C1
:10085E002400FDEC3EFC120C007B14E4FDFF121094
:10086E00687BFF7A0E79E8E4FDFF120DDB781FE25C
:10087E00FFC39435505BEF943040567BFE7A00797F
:10088E001FE4FD7F0C8047781AE2FE08E2FF7C0031
:10089E007D041203D3ED64024C70367B14FDFF12FF
:1008AE0010687BFF7A0E79F5E4FDFF120DDB7BFEFF
:1008BE007A00791F7816E2FC08E2FD08E2FE08E2F3
:1008CE00FF12092E7BFE7A00791FE4FD7F07120DC1
:1008DE00DB781AE2FE08E2FF7C007D041203D3ED02
:1008EE0064014C6009ED64034C60030207957B03C1
:1008FE007D017F09121068E4FF120F36120F0CEF04
:10090E003395E0FEFDFC7BFE7A00791F12092E7BEB
:10091E00FE7A00791F7D017F09120DDB02079522F9
:03000B00020A19CD
:100A1900C0E0C0D075D000C000C006C007758CFC0E
:100A2900758A67781EE22401F218E23400F2C308DD
:100A3900E294E818E264809483400FE4F208F278C3
:100A49001BE224FFF218E234FFF27590007850E2BD
:100A5900FE08E2FFEE704BEF14601C14602E2402B6
:100A69007040C2B4C2B3C2B27851E22401F218E2B2
:100A79003400F278038028C2B4C2B3D2B27851E20A
:100A89002401F218E23400F278028013C2B4D2B31E
:100A9900C2B27851E22401F218E23400F27801E29C
:100AA900F590D37851E2940218E26480948040046E
:0F0AB900E4F208F2D007D006D000D0D0D0E0325F
:10000E0030A109C2A1D2A2D2A3C2A422D2A1C2A25D
:05001E00C2A3D2A422E0
:07107900C2B5121080D2B5D0
:071080000000000000002247
:100FA700D3EF9400EE940040147D7C7C00ED1D701F
:0D0FB700011CED4C70F7EF1F70E61E80E38B
:010FC400220A
:080FE000EBF208EAF208E9F265
:0F0FE800D2B6D2B5121080C2B6121080C2B52296
:08000300C2B612107BD2B62236
:0A109300C2B6121079C2B5D2B6221F
:0A109D00D2B6121079D2B6C2B52205
:040FC500FF120F8880
:100FC900C200C2B5D2B612107B20B604D20080028C
:060FD900C200C2B5A20037
:010FDF0022EF
:100F88007E08C2B5121080EF20E704C2B68002D2F4
:0E0F9800B6D2B5121080EF25E0FFDEE6C2B53E
:010FA6002228
:100EAE007E08E4FF785AF2D2B6C2B51210807801ED
:100EBE00EF08800123D8FDFF1ED2B512108030B688
:0F0ECE00054401FF8004EF54FEFFEE70DCC2B557
:010EDD0022F2
:020D2300785600
:100D2500120FE0120F88120FC940028022E4FD78ED
:100D350059E2FFEDC39F50207856E2FB08E2FA081E
:100D4500E2F98D8275830012031D120FC5400678E6
:0C0D5500007401F2220D80D7120003D3BD
:010D6100226F
:020C74007856B0
:100C7600120FE0EF4401120FC5400678007401F22E
:100C860022121080121080121080E4FD7859E214AE
:100C9600FFEDC39F501C120EAE7856E2FB08E2FA37
:100CA60008E2F98D82758300EF12035C1210930D32
:100CB60080DA120EAE7856E2FB08E2FA08E2F9088C
:100CC600E2FD7C00E92DF9EC3AFA90FFFFEF120302
:080CD6005C12109D120003D313
:010CDE0022F3
:100FF700120FE87FB8120F88120FC97F027E001206
:051007000FA702000329
:0B108700E4FF7E0F7804E4F208DEFCBA
:01109200223B
:03002300020AC806
:100AC800C0E0C0F0C083C082C0D075D000C000C0F4
:100AD80001C002C003C004C005C006C007309807A3
:100AE800C298781CE599F2781CE2FF785008E22455
:100AF8002BF8EFF27851E22401F218E23400F2EF19
:100B0800B4AA05E4F20804F27851E2640670021807
:100B1800E27039782DE2FF18E22FFFE433FE782ED9
:100B2800E27C002FFFEC3EFE08E22FFFEC3EFE08C1
:100B3800E2B50718ECB506147BFE7A00792B12058E
:100B480020EE3395E0FDFC781612042D309902C290
:100B580099D007D006D005D004D003D002D001D058
:0C0B680000D0D0D082D083D0F0D0E0329A
:100F0C00EF75F019A4FFAEF07C007DFF12037EEFAD
:100F1C00D3940340037F0A22EFD394014009EFD30B
:0A0F2C00940350037F08227F052282
:101020007580FFC2A7D2A6D2A5AF80C2A5EF20E7E8
:01103000F6C9
:01103100229C
:10103200AE07121020C2A7C2A6AF068F80D2A5C2E9
:02104200A522E5
:10104400AE07121020D2A7C2A6AF068F80D2A5C2C7
:02105400A522D3
:10105600ED7004AC078004EF2440FCEC4480FF02F2
:02106600103246
:100DDB007855EBF208EAF208E9F21210567855E270
:100DEB00FB08E2FA08E2F9120304601A7855E2FBF9
:100DFB000808E2F92401F218E2FA3400F2120304B3
:070E0B00FF12104480D72202
:10106800121056AF031BEF60077F2012104480F365
:011078002255
:10100C007F381210327F0C1210327F061210327F92
:04101C00010210328B
:0E0C00007855EBF208EAF208E9F2AB05AA0417
:100C0E007C007D0AAF03AE0212037EED2430785BCA
:100C1E00F218742EF27C007D0AAF03AE0212037E30
:100C2E007C007D0A12037EED24307859F2AE02AFBD
:100C3E00037C007D6412037E7C007D0A12037EED30
:100C4E0024307858F2E4FF74582FF8E2FE7855E21B
:100C5E00FB08E2FA08E2F98F82758300EE12035C5C
:050C6E000FEFB404E2E9
:010C7300225E
:100F600075985053890F438920AB07AA06E4F9F816
:100F70007F807E70FDFC120CDFEFF404F58D858D13
:080F80008BC2ABD2ACD28E2271
:10052000786A12043900000000E4786EF208F29054
:10053000000112031DFFEFFE90000212031DFD33A8
:1005400095E0FCE42DFDEE3CFC12024AE4FBFA7956
:10055000207840120026E4FBFA7980784412012FBB
:10056000786A12042D7FEC7E517D387C3D786AE2FA
:10057000FB08E2F908E2FA08E2CBF81201CC6002CB
:10058000500B786EE4F20874C8F202076E7FA67E04
:100590009B7D447C3D786AE2FB08E2F908E2FA08B8
:1005A000E2CBF81201CC6002500C786E7401F208B4
:1005B0007490F202076E7F607EE57D507C3D786A24
:1005C000E2FB08E2F908E2FA08E2CBF81201CC609B
:1005D00002500C786E7402F2087458F202076E7FB3
:1005E0001B7E2F7D5D7C3D786AE2FB08E2F908E224
:1005F000FA08E2CBF81201CC6002500C786E74025B
:10060000F20874EEF202076E7F687E917D6D7C3D8C
:10061000786AE2FB08E2F908E2FA08E2CBF8120194
:10062000CC6002500C786E7403F2087484F20207F6
:100630006E7F6F7E127D837C3D786AE2FB08E2F973
:1006400008E2FA08E2CBF81201CC6002500C786E96
:100650007403F20874E8F202076E7F297E5C7D8FD6
:100660007C3D786AE2FB08E2F908E2FA08E2CBF89E
:100670001201CC6002500C786E7404F20874E2F23D
:1006800002076E7F9A7E997D997C3D786AE2FB082D
:10069000E2F908E2FA08E2CBF81201CC6002500C51
:1006A000786E7405F2087478F202076E7F0A7ED7BE
:1006B0007DA37C3D786AE2FB08E2F908E2FA08E2F1
:1006C000CBF81201CC6002500C786E7406F20874FC
:1006D000A4F202076E7F7B7E147DAE7C3D786AE2D9
:1006E000FB08E2F908E2FA08E2CBF81201CC60025A
:1006F000500A786E7407F20804F280727FEC7E5123
:100700007DB87C3D786AE2FB08E2F908E2FA08E28B
:10071000CBF81201CC6002500B786E7407F20874AB
:100720006CF2804A7FCD7ECC7DCC7C3D786AE2FB4A
:1007300008E2F908E2FA08E2CBF81201CC600250B4
:100740000B786E7407F20874D0F280227FAE7E4779
:100750007DE17C3D786AE2FB08E2F908E2FA08E212
:10076000CBF81201CC786E7408F2087498F2786EA7
:10077000E2FC08E2FDEC12024A786AE2FB08E2F9C8
:0D07800008E2FA08E2CBF81200261202830C
:01078D002249
:0E092E007855EBF208EAF208E9F20812042DFF
:10093C00E4785CF208F27858E2FCEC3350307858EA
:10094C00E2FC08E2FD08E2FE08E2FF120409785816
:10095C0012042D7855E2FB0808E2F92401F218E2A2
:10096C00FA3400F2742D12034A785DE204F2E47B4F
:10097C000AFAF9F8C0007858E2FC08E2FD08E2FE39
:10098C0008E2FFD000120CDFAF03785CE2FE04F249
:10099C00745E2EF8EFF27858E2FC08E2FD08E2FEF5
:1009AC0008E2FFE47B0AFAF9F8120CDF785812041B
:1009BC002DE4FFFEFDFC7858E2FB08E2F908E2FAB0
:1009CC0008E2CBF8D312041750A4785CE2FF08E2DB
:1009DC002FF2785CE2FF14F2D3EF64809480401F16
:1009EC00E2245EF8E22430FF7855E2FB0808E2F9D5
:1009FC002401F218E2FA3400F2EF12034A80D378A1
:0D0A0C0055E2FB08E2FA08E2F9E402034AB1
:100E12007E80EE601B5F7004C2B68002D2B6000014
:100E22000000D2B500000000C2B5EEC313FE80E29E
:100E3200D2B600000000D2B5A2B6920000000000B7
:050E4200C2B5A200B3DF
:010E47002288
:100E4800D2B67E80EE601D00000000D2B520B60547
:100E5800F45FFF8003EF4EFF00000000C2B5EEC351
:100E680013FE80E0D2B600000000D2B500000000FA
:020E7800C2B501
:010E7A002255
:100E7B00D2B67E80EE601D00000000D2B520B60514
:100E8B00F45FFF8003EF4EFF00000000C2B5EEC31E
:100E9B0013FE80E0C2B600000000D2B500000000D7
:020EAB00C2B5CE
:010EAD002222
:040F36007855EFF209
:100F3A00120FE87855E24440FF120E12120FE87FB2
:100F4A0091120E12120E7B120E487856EFF2120010
:050F5A00037856E2FFE0
:010F5F00226F
:10002600EC4D6011E8497017ED33EC3304600DE4D4
:10003600FCFFFEFD22E933E8330470F80202EF12FA
:1000460002BA58046009E4CC2481500628500902FB
:1000560002F92840030202F6C0E0EB4A7044B98078
:1000660006D0E0FB0202E5EF4E701CBD8008EBFFF8
:10007600EAFEE9FD80EBE98DF0A4FEE5F002010F52
:10008600E9CDF9EAFEEBFFEF89F0A4FCE5F0CE89B5
:10009600F0A42EFFE435F0CD89F0A42DFEE435F072
:1000A6008067EF4E7005BD80D780C3EF8BF0A4ACA0
:1000B600F0EE8BF0A42CFCE435F0F8EF8AF0A42CDB
:1000C600E5F038FCE433CB8DF0A42CFCE5F03BF8EE
:1000D600EE8AF0A42CFCE5F038F8E433CF89F0A4DE
:1000E6002CFCE5F038CF3400CE89F0A42FFFE5F0E4
:1000F6003EFEE433C98DF0A42EFEE5F039CD8AF03C
:10010600A42FFFE5F03EFEE43DFD33D0E0FB5007B3
:100116000BBB000F0202F9EC2CFCEF33FFEE33FEB3
:06012600ED33FD0202D1E1
:10012C000202F9EC5D046005E8590470030202EF69
:10013C001202BA580460F6EC4860F2EC7004FDFE52
:10014C00FF22C860DB2481C85009C39860025006A6
:10015C000202F69850CAF582E9294B4A7005AB8227
:10016C000202E575F0007C1A7880C3EF9BEE9AEDE5
:10017C0099400DC3EF9BFFEE9AFEED99FDE842F01E
:10018C00DC23ACF0D0E0FFD0E0FED0E0FDAB822071
:10019C00E7101BEB60BAEC2CFCEF33FFEE33FEEDFB
:1001AC0033FD0202D1E803F830E705C0F075F0002A
:1001BC00EF2FFFEE33FEED33FD40B830E7C280AADF
:1001CC0074F8CC6480CCC86480C8F58204604FC3DA
:1001DC00EB9FF5F0EA9E42F0E99D42F0E89C45F079
:1001EC00603C501DE5825FFFE582D313CB5BCBF403
:1001FC002B5582FB50280ABA002409B9002008802C
:10020C001DE5825BFBE582D313CF5FCFF4C3132FC5
:10021C005582FF50090EBE00050DBD00010CC3EB4D
:10022C009FF5F0EA9E42F0E99D42F0E89C45F060B3
:09023C0007CC4820E701B3EC22D5
:1002450075F020800E75F010800575F0087D007E34
:10025500007F003392D530D503120409EC334010EA
:10026500EF33FFEE33FEED33FDEC33FCD5F0ED223D
:0E027500E5F0247EA2D513CC92E7CDCEFF2279
:10028300EDD2E7CD33EC3392D524814006E4FFFE73
:10029300FDFC22FCE4CFCECDCC24E0501174FF80D2
:1002A300EDC3CC13CCCD13CDCE13CECF13CF04706F
:0702B300F030D5DE02040962
:1002BA00E9D2E7C933E833F892D5EDD2E7CD33EC8A
:0702CA0033FC5002B2D52203
:1002D100EC30E7100FBF000C0EBE00080DBD00048E
:1002E1000BEB6014A2D5EB13FCED92E7FD2274FF3A
:1002F100FCFDFEFF22E480F8A2D574FF13FC7D8093
:03030100E480EFA6
:100B8000020D62E493A3F8E493A34003F68001F21C
:100B900008DFF48029E493A3F85407240CC8C33376
:100BA000C4540F4420C8834004F456800146F6DF45
:100BB000E4800B0102040810204080900D9FE47E29
:100BC000019360BCA3FF543F30E509541FFEE4933A
:100BD000A360010ECF54C025E060A840B8E493A301
:100BE000FAE493A3F8E493A3C8C582C8CAC583CA2C
:100BF000F0A3C8C582C8CAC583CADFE9DEE780BEE4
:010DDA000018
:10030400BB010689828A83E0225002E722BBFE02F7
:09031400E32289828A83E493222A
:10031D00BB010CE58229F582E5833AF583E0225095
:10032D0006E92582F8E622BBFE06E92582F8E222DF
:0D033D00E58229F582E5833AF583E49322F9
:10034A00BB010689828A83F0225002F722BBFE0192
:02035A00F3228C
:10035C00F8BB010DE58229F582E5833AF583E8F0D7
:10036C00225006E92582C8F622BBFE05E92582C883
:02037C00F2226B
:10037E00BC000BBE0029EF8DF084FFADF022E4CC63
:10038E00F875F008EF2FFFEE33FEEC33FCEE9DEC2C
:10039E00984005FCEE9DFE0FD5F0E9E4CEFD22ED72
:1003AE00F8F5F0EE8420D21CFEADF075F008EF2FBC
:1003BE00FFED33FD4007985006D5F0F222C398FDAD
:0503CE000FD5F0EA224A
:1003D300C2D5EC30E709B2D5E4C39DFDE49CFCEE45
:1003E30030E715B2D5E4C39FFFE49EFE12037EC33C
:1003F300E49DFDE49CFC800312037E30D507C3E437
:060403009FFFE49EFE22B3
:100CDF00C2D5E830E70FB2D5E4C39BFBE49AFAE440
:100CEF0099F9E498F8EC30E717B2D5120D15120404
:100CFF008EE4C39BFBE49AFAE499F9E498F8800335
:100D0F0012048E30D50DE4C39FFFE49EFEE49DFDDB
:040D1F00E49CFC2232
:0E040900C3E49FFFE49EFEE49DFDE49CFC2204
:10041700EB9FF5F0EA9E42F0E99D42F0EC6480C85C
:0604270064809845F022FC
:0C042D00ECF208EDF208EEF208EFF2220B
:10043900D083D082E493F208740193F20874029392
:09044900F208740393F2740473C9
:1004520075F008758200EF2FFFEE33FECD33CDCC61
:1004620033CCC58233C5829BED9AEC99E5829840E4
:100472000CF582EE9BFEED9AFDEC99FC0FD5F0D6C1
:10048200E4CEFBE4CDFAE4CCF9A88222B800C1B9EB
:100492000059BA002DEC8BF084CFCECDFCE5F0CB29
:1004A200F97818EF2FFFEE33FEED33FDEC33FCEB62
:1004B20033FB10D703994004EB99FB0FD8E5E4F91D
:1004C200FA227818EF2FFFEE33FEED33FDEC33FC0A
:1004D200C933C910D7059BE99A4007EC9BFCE99AFE
:1004E200F90FD8E0E4C9FAE4CCFB2275F010EF2F43
:1004F200FFEE33FEED33FDCC33CCC833C810D70743
:100502009BEC9AE899400AED9BFDEC9AFCE899F87D
:0E0512000FD5F0DAE4CDFBE4CCFAE4C8F92210
:00000001FF
